:0600000012C0FECFFDCF8F
:10000600FCCFFBCFFACFF9CFF8CFF7CFF6CFF5CFAE
:10001600F4CFF3CFF2CFF1CFF0CFEFCFEECFEDCFDE
:10002600F894EE27ECBBF1E0FBBFEBBFE5BF8DE03C
:10003600A2E0BB27ED938A95E9F780E094E0A0E67D
:10004600ED930197E9F7EFE5EDBFE4E0EEBFC0E61B
:10005600D1E000C0EFEFE7BBE0E0E8BB01E038E04D
:1000660020E02230C8F410E0123038F408BBA2E3D6
:10007600B0E014D0000F1F5FF7CF10E0123050F43D
:10008600A0E13A02F001E8BBA2E3B0E007D0369562
:100096001F5FF4CF2F5FE5CFE1CFFFCF109639F08A
:1000A600A89580EA9FE00197F1F71197C9F708959F
:00000001FF
