:0800000012C0FECFFDCFFCCFC2
:10000800FBCFFACFF9CFF8CFF7CFF6CFF5CFF4CFB4
:10001800F3CFF2CFF1CFF0CFEFCFEECFEDCFF89413
:10002800EE27ECBBF1E0FBBFEBBFE5BF8DE0A2E044
:10003800BB27ED938A95E9F780E094E0A0E6ED937D
:100048000197E9F7EFE5EDBFE4E0EEBFC0E6D1E0E8
:1000580000C0EFEFE7BBE0E0E8BB30E010E01730AE
:10006800E0F421E000E0E12FF0E0A7E0B0E017D0F5
:10007800EA1BFB0BA02FB0E0EA17FB0754F0E22FB6
:10008800E30F5E2F58BBA2E3B0E010D0220F0F5F42
:10009800EACF369530581F5FE2CFDFCFFFCF1B2E58
:1000A800BF2FF12D1A2EAE2FE12D0895109639F09D
:1000B800A89580EA9FE00197F1F71197C9F708958D
:00000001FF
