:100000001CC0FECFFDCFFCCFFBCFFACFF9CFF8CF8E
:10001000F7CFF6CFF5CFF4CFF3CFF2CFF1CFF0CFCC
:10002000EFCFEECFEDCF01002D4E414E00494E46B1
:1000300000000100600126000000F894EE27ECBBF0
:10004000F1E0FBBFEBBFE5BF8DE0A2E0BB27ED9386
:100050008A95E9F780E094E0A0E6ED930197E9F74F
:10006000E2E3F0E085919591009761F0A591B5915B
:1000700005901590BF01F00105900D920197E1F7F1
:10008000FB01F0CFEFE5EDBFE4E0EEBFC0E6D1E06D
:10009000A2C01A931A2FA89AA998C3D09AC01A93EB
:1000A0001A2FA89AA99ABDD094C0A8E3F2DFACE0B9
:1000B000F0DFBFD0A6E0EDDFA2E0EBDF089590987F
:1000C000919A929A939A849905C0B5D0849BFECF59
:1000D000E7E30895859905C0AED0859BFECFE8E3A0
:1000E0000895869905C0A7D0869BFECFE9E30895C1
:1000F000879905C0A0D0879BFECFEFE20895909A24
:100100009198929A939A849905C095D0849BFECF3A
:10011000E4E30895859905C08ED0859BFECFE5E385
:100120000895869905C087D0869BFECFE6E30895A3
:10013000879905C080D0879BFECFE8E70895909A05
:10014000919A9298939A849905C075D0849BFECF1A
:10015000E1E30895859905C06ED0859BFECFE2E36B
:100160000895869905C067D0869BFECFE3E3089586
:10017000879905C060D0879BFECFEDE20895909AE5
:10018000919A929A9398849905C055D0849BFECFFA
:10019000E3E40895859905C04ED0859BFECFE0E34A
:1001A0000895869905C047D0869BFECFEDE308955C
:1001B000879905C040D0879BFECFEBE20895EEE61D
:1001C00008951A931EE61E3619F479DF1E2FFBCF11
:1001D000E12F199108952297E0E0E883E98310E088
:1001E00020E030E040E050E00EE6EFEFE7BBEFE06C
:1001F000E1BB5BDF1ED0A0E84CDFA3E350DFA4E14E
:10020000B0E01CD016D0A0E844DF2197DADFE88305
:10021000A88145DFA4E6B0E011D00BD02196F5CF40
:10022000FFCF18BBA5E0B0E009D0A898A5E0B0E0EA
:1002300005C0A1E02ECFAAE0B0E000C0109639F0D2
:10024000A89580EA9FE00197F1F71197C9F7089503
:00000001FF
