:0600000012C0FECFFDCF8F
:10000600FCCFFBCFFACFF9CFF8CFF7CFF6CFF5CFAE
:10001600F4CFF3CFF2CFF1CFF0CFEFCFEECFEDCFDE
:10002600F894EE27ECBBF1E0FBBFEBBFE5BF8DE03C
:10003600A2E0BB27ED938A95E9F780E094E0A0E67D
:10004600ED930197E9F7EFE5EDBFE4E0EEBFC0E61B
:10005600D1E000C0EFEFE7BBE0E0E8BB01E010E075
:10006600143028F40FD0000F000F1F5FF9CF00E8FF
:1000760010E0143028F406D0069506951F5FF9CFD8
:10008600EDCFFFCF08BBA2E3B0E000C0109639F079
:10009600A89580EA9FE00197F1F71197C9F70895AF
:00000001FF
