:0400000012C0FECF5D
:10000400FDCFFCCFFBCFFACFF9CFF8CFF7CFF6CFA8
:10001400F5CFF4CFF3CFF2CFF1CFF0CFEFCFEECFD8
:10002400EDCFF894EE27ECBBF1E0FBBFEBBFE5BFEF
:100034008DE0A2E0BB27ED938A95E9F780E094E098
:10004400A0E6ED930197E9F7EFE5EDBFE4E0EEBF3D
:10005400C0E6D1E000C0EFEFE7BBE0E0E8BB01E0C1
:1000640038E010E0143028F410D0000F36951F5FEC
:10007400F9CF08E031E010E0143028F406D00695FA
:10008400330F1F5FF9CFEBCFFFCFA0E10A02F001DE
:10009400E30F2E2F28BBA4E6B0E000C0109639F081
:1000A400A89580EA9FE00197F1F71197C9F70895A1
:00000001FF
