:0C00000012C0FECFFDCFFCCFFBCFFACF2B
:10000C00F9CFF8CFF7CFF6CFF5CFF4CFF3CFF2CFC0
:10001C00F1CFF0CFEFCFEECFEDCFF894EE27ECBBD6
:10002C00F1E0FBBFEBBFE5BF8DE0A2E0BB27ED939A
:10003C008A95E9F780E094E0A0E6ED930197E9F763
:10004C00EFE5EDBFE4E0EEBFC0E6D1E000C010E0AC
:10005C0000E030E020E050E0EFEFE7BBE0E0E8BB91
:10006C0031E021E010E0173000F500E0E12FF0E086
:10007C00A8E0B0E024D0EA1BFB0BA02FB0E0EA17FD
:10008C00FB0754F0E22FE32B5E2F58BBA2E3B0E04A
:10009C001DD0220F0F5FEACF21E0E12FA22F07D056
:1000AC002E2F330F3F5F1F5FDECFDACFFFCFEE2354
:1000BC000E2EEA2F19F0EE0F0A94E9F708951B2E75
:1000CC00BF2FF12D1A2EAE2FE12D0895109639F079
:1000DC00A89580EA9FE00197F1F71197C9F7089569
:00000001FF
